:0408BE00020800002C
:0C08B200D2A075891075A888D28E80FE37
:03001B0002088C4C
:10088C00C0E0C0D00509E50970020508D3940AE55B
:10089C000864809480400AB2A0750800750900C2F3
:0608AC008FD0D0D0E03235
:03000000020800F3
:0C080000787FE4F6D8FD758109020847F6
:10080C000208B2E493A3F8E493A34003F68001F248
:10081C0008DFF48029E493A3F85407240CC8C333ED
:10082C00C4540F4420C8834004F456800146F6DFBC
:10083C00E4800B01020408102040809008BEE47E86
:10084C00019360BCA3FF543F30E509541FFEE493B1
:10085C00A360010ECF54C025E060A840B8E493A378
:10086C00FAE493A3F8E493A3C8C582C8CAC583CAA3
:10087C00F0A3C8C582C8CAC583CADFE9DEE780BE5B
:0108C2000035
:00000001FF
